{"contracts/URLRegistry.sol":{"URLRegistry":{"abi":[{"anonymous":false,"inputs":[{"indexed":false,"internalType":"string","name":"shortCode","type":"string"},{"indexed":false,"internalType":"uint256","name":"newClickCount","type":"uint256"}],"name":"URLClicked","type":"event"},{"anonymous":false,"inputs":[{"indexed":true,"internalType":"address","name":"owner","type":"address"},{"indexed":false,"internalType":"string","name":"shortCode","type":"string"},{"indexed":false,"internalType":"uint256","name":"timestamp","type":"uint256"}],"name":"URLRegistered","type":"event"},{"inputs":[{"internalType":"string","name":"shortCode","type":"string"}],"name":"getUrlClicks","outputs":[{"internalType":"uint256","name":"","type":"uint256"}],"stateMutability":"view","type":"function"},{"inputs":[{"internalType":"string","name":"shortCode","type":"string"}],"name":"getUrlCreatedAt","outputs":[{"internalType":"uint256","name":"","type":"uint256"}],"stateMutability":"view","type":"function"},{"inputs":[{"internalType":"string","name":"shortCode","type":"string"}],"name":"getUrlOwner","outputs":[{"internalType":"address","name":"","type":"address"}],"stateMutability":"view","type":"function"},{"inputs":[{"internalType":"address","name":"user","type":"address"}],"name":"getUserUrls","outputs":[{"internalType":"string[]","name":"","type":"string[]"}],"stateMutability":"view","type":"function"},{"inputs":[{"internalType":"string","name":"shortCode","type":"string"}],"name":"incrementClick","outputs":[],"stateMutability":"nonpayable","type":"function"},{"inputs":[{"internalType":"string","name":"shortCode","type":"string"}],"name":"registerURL","outputs":[],"stateMutability":"nonpayable","type":"function"},{"inputs":[{"internalType":"string","name":"","type":"string"}],"name":"urlClicks","outputs":[{"internalType":"uint256","name":"","type":"uint256"}],"stateMutability":"view","type":"function"},{"inputs":[{"internalType":"string","name":"","type":"string"}],"name":"urlCreatedAt","outputs":[{"internalType":"uint256","name":"","type":"uint256"}],"stateMutability":"view","type":"function"},{"inputs":[{"internalType":"string","name":"","type":"string"}],"name":"urlOwners","outputs":[{"internalType":"address","name":"","type":"address"}],"stateMutability":"view","type":"function"},{"inputs":[{"internalType":"address","name":"","type":"address"},{"internalType":"uint256","name":"","type":"uint256"}],"name":"userUrls","outputs":[{"internalType":"string","name":"","type":"string"}],"stateMutability":"view","type":"function"}],"evm":{"bytecode":{"linkReferences":{},"object":"608060405234801561001057600080fd5b50611254806100206000396000f3fe608060405234801561001057600080fd5b506004361061009e5760003560e01c80638938533911610066578063893853391461017f578063aaf86a7a146101af578063cca6d243146101cb578063ccee758c146101fb578063e687fb511461022b5761009e565b80630b573983146100a35780632117c74e146100d357806334f5d07014610103578063728588481461011f5780637c84d9e91461014f575b600080fd5b6100bd60048036038101906100b89190610a15565b61025b565b6040516100ca9190610a77565b60405180910390f35b6100ed60048036038101906100e89190610a15565b610283565b6040516100fa9190610ad3565b60405180910390f35b61011d60048036038101906101189190610a15565b6102ca565b005b61013960048036038101906101349190610a15565b610407565b6040516101469190610a77565b60405180910390f35b61016960048036038101906101649190610b46565b61042f565b6040516101769190610c05565b60405180910390f35b61019960048036038101906101949190610a15565b6104e8565b6040516101a69190610a77565b60405180910390f35b6101c960048036038101906101c49190610a15565b610516565b005b6101e560048036038101906101e09190610a15565b61072c565b6040516101f29190610ad3565b60405180910390f35b61021560048036038101906102109190610a15565b610775565b6040516102229190610a77565b60405180910390f35b61024560048036038101906102409190610c27565b6107a3565b6040516102529190610d60565b60405180910390f35b600060028260405161026d9190610dbe565b9081526020016040518091039020549050919050565b600080826040516102949190610dbe565b908152602001604051809103902060009054906101000a900473ffffffffffffffffffffffffffffffffffffffff169050919050565b600073ffffffffffffffffffffffffffffffffffffffff166000826040516102f29190610dbe565b908152602001604051809103902060009054906101000a900473ffffffffffffffffffffffffffffffffffffffff1673ffffffffffffffffffffffffffffffffffffffff1603610377576040517f08c379a000000000000000000000000000000000000000000000000000000000815260040161036e90610e21565b60405180910390fd5b60016003826040516103899190610dbe565b908152602001604051809103902060008282546103a69190610e70565b925050819055507f0309f285f717ff90e17594c98808dcb0b0cbab3c8df3a5269bbad69df0d027a5816003836040516103df9190610dbe565b9081526020016040518091039020546040516103fc929190610ea4565b60405180910390a150565b60006003826040516104199190610dbe565b9081526020016040518091039020549050919050565b6001602052816000526040600020818154811061044b57600080fd5b9060005260206000200160009150915050805461046790610f03565b80601f016020809104026020016040519081016040528092919081815260200182805461049390610f03565b80156104e05780601f106104b5576101008083540402835291602001916104e0565b820191906000526020600020905b8154815290600101906020018083116104c357829003601f168201915b505050505081565b6002818051602081018201805184825260208301602085012081835280955050505050506000915090505481565b600073ffffffffffffffffffffffffffffffffffffffff1660008260405161053e9190610dbe565b908152602001604051809103902060009054906101000a900473ffffffffffffffffffffffffffffffffffffffff1673ffffffffffffffffffffffffffffffffffffffff16146105c3576040517f08c379a00000000000000000000000000000000000000000000000000000000081526004016105ba90610f80565b60405180910390fd5b336000826040516105d49190610dbe565b908152602001604051809103902060006101000a81548173ffffffffffffffffffffffffffffffffffffffff021916908373ffffffffffffffffffffffffffffffffffffffff160217905550600160003373ffffffffffffffffffffffffffffffffffffffff1673ffffffffffffffffffffffffffffffffffffffff16815260200190815260200160002081908060018154018082558091505060019003906000526020600020016000909190919091509081610691919061114c565b50426002826040516106a39190610dbe565b90815260200160405180910390208190555060006003826040516106c79190610dbe565b9081526020016040518091039020819055503373ffffffffffffffffffffffffffffffffffffffff167f82982fdeb200663d95a47245c0ec408c1d822cbb0653a3f9cef1a4b68f36a8208242604051610721929190610ea4565b60405180910390a250565b6000818051602081018201805184825260208301602085012081835280955050505050506000915054906101000a900473ffffffffffffffffffffffffffffffffffffffff1681565b6003818051602081018201805184825260208301602085012081835280955050505050506000915090505481565b6060600160008373ffffffffffffffffffffffffffffffffffffffff1673ffffffffffffffffffffffffffffffffffffffff168152602001908152602001600020805480602002602001604051908101604052809291908181526020016000905b828210156108b057838290600052602060002001805461082390610f03565b80601f016020809104026020016040519081016040528092919081815260200182805461084f90610f03565b801561089c5780601f106108715761010080835404028352916020019161089c565b820191906000526020600020905b81548152906001019060200180831161087f57829003601f168201915b505050505081526020019060010190610804565b505050509050919050565b6000604051905090565b600080fd5b600080fd5b600080fd5b600080fd5b6000601f19601f8301169050919050565b7f4e487b7100000000000000000000000000000000000000000000000000000000600052604160045260246000fd5b610922826108d9565b810181811067ffffffffffffffff82111715610941576109406108ea565b5b80604052505050565b60006109546108bb565b90506109608282610919565b919050565b600067ffffffffffffffff8211156109805761097f6108ea565b5b610989826108d9565b9050602081019050919050565b82818337600083830152505050565b60006109b86109b384610965565b61094a565b9050828152602081018484840111156109d4576109d36108d4565b5b6109df848285610996565b509392505050565b600082601f8301126109fc576109fb6108cf565b5b8135610a0c8482602086016109a5565b91505092915050565b600060208284031215610a2b57610a2a6108c5565b5b600082013567ffffffffffffffff811115610a4957610a486108ca565b5b610a55848285016109e7565b91505092915050565b6000819050919050565b610a7181610a5e565b82525050565b6000602082019050610a8c6000830184610a68565b92915050565b600073ffffffffffffffffffffffffffffffffffffffff82169050919050565b6000610abd82610a92565b9050919050565b610acd81610ab2565b82525050565b6000602082019050610ae86000830184610ac4565b92915050565b610af781610ab2565b8114610b0257600080fd5b50565b600081359050610b1481610aee565b92915050565b610b2381610a5e565b8114610b2e57600080fd5b50565b600081359050610b4081610b1a565b92915050565b60008060408385031215610b5d57610b5c6108c5565b5b6000610b6b85828601610b05565b9250506020610b7c85828601610b31565b9150509250929050565b600081519050919050565b600082825260208201905092915050565b60005b83811015610bc0578082015181840152602081019050610ba5565b60008484015250505050565b6000610bd782610b86565b610be18185610b91565b9350610bf1818560208601610ba2565b610bfa816108d9565b840191505092915050565b60006020820190508181036000830152610c1f8184610bcc565b905092915050565b600060208284031215610c3d57610c3c6108c5565b5b6000610c4b84828501610b05565b91505092915050565b600081519050919050565b600082825260208201905092915050565b6000819050602082019050919050565b600082825260208201905092915050565b6000610c9c82610b86565b610ca68185610c80565b9350610cb6818560208601610ba2565b610cbf816108d9565b840191505092915050565b6000610cd68383610c91565b905092915050565b6000602082019050919050565b6000610cf682610c54565b610d008185610c5f565b935083602082028501610d1285610c70565b8060005b85811015610d4e5784840389528151610d2f8582610cca565b9450610d3a83610cde565b925060208a01995050600181019050610d16565b50829750879550505050505092915050565b60006020820190508181036000830152610d7a8184610ceb565b905092915050565b600081905092915050565b6000610d9882610b86565b610da28185610d82565b9350610db2818560208601610ba2565b80840191505092915050565b6000610dca8284610d8d565b915081905092915050565b7f53686f727420636f6465206e6f74207265676973746572656400000000000000600082015250565b6000610e0b601983610b91565b9150610e1682610dd5565b602082019050919050565b60006020820190508181036000830152610e3a81610dfe565b9050919050565b7f4e487b7100000000000000000000000000000000000000000000000000000000600052601160045260246000fd5b6000610e7b82610a5e565b9150610e8683610a5e565b9250828201905080821115610e9e57610e9d610e41565b5b92915050565b60006040820190508181036000830152610ebe8185610bcc565b9050610ecd6020830184610a68565b9392505050565b7f4e487b7100000000000000000000000000000000000000000000000000000000600052602260045260246000fd5b60006002820490506001821680610f1b57607f821691505b602082108103610f2e57610f2d610ed4565b5b50919050565b7f53686f727420636f646520616c72656164792072656769737465726564000000600082015250565b6000610f6a601d83610b91565b9150610f7582610f34565b602082019050919050565b60006020820190508181036000830152610f9981610f5d565b9050919050565b60008190508160005260206000209050919050565b60006020601f8301049050919050565b600082821b905092915050565b6000600883026110027fffffffffffffffffffffffffffffffffffffffffffffffffffffffffffffffff82610fc5565b61100c8683610fc5565b95508019841693508086168417925050509392505050565b6000819050919050565b600061104961104461103f84610a5e565b611024565b610a5e565b9050919050565b6000819050919050565b6110638361102e565b61107761106f82611050565b848454610fd2565b825550505050565b600090565b61108c61107f565b61109781848461105a565b505050565b5b818110156110bb576110b0600082611084565b60018101905061109d565b5050565b601f821115611100576110d181610fa0565b6110da84610fb5565b810160208510156110e9578190505b6110fd6110f585610fb5565b83018261109c565b50505b505050565b600082821c905092915050565b600061112360001984600802611105565b1980831691505092915050565b600061113c8383611112565b9150826002028217905092915050565b61115582610b86565b67ffffffffffffffff81111561116e5761116d6108ea565b5b6111788254610f03565b6111838282856110bf565b600060209050601f8311600181146111b657600084156111a4578287015190505b6111ae8582611130565b865550611216565b601f1984166111c486610fa0565b60005b828110156111ec578489015182556001820191506020850194506020810190506111c7565b868310156112095784890151611205601f891682611112565b8355505b6001600288020188555050505b50505050505056fea2646970667358221220ad7adfaf066cb54b760dff3328d0c255cbe7ad698b86ffec3d35145e7f0a34ce64736f6c63430008140033","opcodes":"PUSH1 0x80 PUSH1 0x40 MSTORE CALLVALUE DUP1 ISZERO PUSH2 0x10 JUMPI PUSH1 0x0 DUP1 REVERT JUMPDEST POP PUSH2 0x1254 DUP1 PUSH2 0x20 PUSH1 0x0 CODECOPY PUSH1 0x0 RETURN INVALID PUSH1 0x80 PUSH1 0x40 MSTORE CALLVALUE DUP1 ISZERO PUSH2 0x10 JUMPI PUSH1 0x0 DUP1 REVERT JUMPDEST POP PUSH1 0x4 CALLDATASIZE LT PUSH2 0x9E JUMPI PUSH1 0x0 CALLDATALOAD PUSH1 0xE0 SHR DUP1 PUSH4 0x89385339 GT PUSH2 0x66 JUMPI DUP1 PUSH4 0x89385339 EQ PUSH2 0x17F JUMPI DUP1 PUSH4 0xAAF86A7A EQ PUSH2 0x1AF JUMPI DUP1 PUSH4 0xCCA6D243 EQ PUSH2 0x1CB JUMPI DUP1 PUSH4 0xCCEE758C EQ PUSH2 0x1FB JUMPI DUP1 PUSH4 0xE687FB51 EQ PUSH2 0x22B JUMPI PUSH2 0x9E JUMP JUMPDEST DUP1 PUSH4 0xB573983 EQ PUSH2 0xA3 JUMPI DUP1 PUSH4 0x2117C74E EQ PUSH2 0xD3 JUMPI DUP1 PUSH4 0x34F5D070 EQ PUSH2 0x103 JUMPI DUP1 PUSH4 0x72858848 EQ PUSH2 0x11F JUMPI DUP1 PUSH4 0x7C84D9E9 EQ PUSH2 0x14F JUMPI JUMPDEST PUSH1 0x0 DUP1 REVERT JUMPDEST PUSH2 0xBD PUSH1 0x4 DUP1 CALLDATASIZE SUB DUP2 ADD SWAP1 PUSH2 0xB8 SWAP2 SWAP1 PUSH2 0xA15 JUMP JUMPDEST PUSH2 0x25B JUMP JUMPDEST PUSH1 0x40 MLOAD PUSH2 0xCA SWAP2 SWAP1 PUSH2 0xA77 JUMP JUMPDEST PUSH1 0x40 MLOAD DUP1 SWAP2 SUB SWAP1 RETURN JUMPDEST PUSH2 0xED PUSH1 0x4 DUP1 CALLDATASIZE SUB DUP2 ADD SWAP1 PUSH2 0xE8 SWAP2 SWAP1 PUSH2 0xA15 JUMP JUMPDEST PUSH2 0x283 JUMP JUMPDEST PUSH1 0x40 MLOAD PUSH2 0xFA SWAP2 SWAP1 PUSH2 0xAD3 JUMP JUMPDEST PUSH1 0x40 MLOAD DUP1 SWAP2 SUB SWAP1 RETURN JUMPDEST PUSH2 0x11D PUSH1 0x4 DUP1 CALLDATASIZE SUB DUP2 ADD SWAP1 PUSH2 0x118 SWAP2 SWAP1 PUSH2 0xA15 JUMP JUMPDEST PUSH2 0x2CA JUMP JUMPDEST STOP JUMPDEST PUSH2 0x139 PUSH1 0x4 DUP1 CALLDATASIZE SUB DUP2 ADD SWAP1 PUSH2 0x134 SWAP2 SWAP1 PUSH2 0xA15 JUMP JUMPDEST PUSH2 0x407 JUMP JUMPDEST PUSH1 0x40 MLOAD PUSH2 0x146 SWAP2 SWAP1 PUSH2 0xA77 JUMP JUMPDEST PUSH1 0x40 MLOAD DUP1 SWAP2 SUB SWAP1 RETURN JUMPDEST PUSH2 0x169 PUSH1 0x4 DUP1 CALLDATASIZE SUB DUP2 ADD SWAP1 PUSH2 0x164 SWAP2 SWAP1 PUSH2 0xB46 JUMP JUMPDEST PUSH2 0x42F JUMP JUMPDEST PUSH1 0x40 MLOAD PUSH2 0x176 SWAP2 SWAP1 PUSH2 0xC05 JUMP JUMPDEST PUSH1 0x40 MLOAD DUP1 SWAP2 SUB SWAP1 RETURN JUMPDEST PUSH2 0x199 PUSH1 0x4 DUP1 CALLDATASIZE SUB DUP2 ADD SWAP1 PUSH2 0x194 SWAP2 SWAP1 PUSH2 0xA15 JUMP JUMPDEST PUSH2 0x4E8 JUMP JUMPDEST PUSH1 0x40 MLOAD PUSH2 0x1A6 SWAP2 SWAP1 PUSH2 0xA77 JUMP JUMPDEST PUSH1 0x40 MLOAD DUP1 SWAP2 SUB SWAP1 RETURN JUMPDEST PUSH2 0x1C9 PUSH1 0x4 DUP1 CALLDATASIZE SUB DUP2 ADD SWAP1 PUSH2 0x1C4 SWAP2 SWAP1 PUSH2 0xA15 JUMP JUMPDEST PUSH2 0x516 JUMP JUMPDEST STOP JUMPDEST PUSH2 0x1E5 PUSH1 0x4 DUP1 CALLDATASIZE SUB DUP2 ADD SWAP1 PUSH2 0x1E0 SWAP2 SWAP1 PUSH2 0xA15 JUMP JUMPDEST PUSH2 0x72C JUMP JUMPDEST PUSH1 0x40 MLOAD PUSH2 0x1F2 SWAP2 SWAP1 PUSH2 0xAD3 JUMP JUMPDEST PUSH1 0x40 MLOAD DUP1 SWAP2 SUB SWAP1 RETURN JUMPDEST PUSH2 0x215 PUSH1 0x4 DUP1 CALLDATASIZE SUB DUP2 ADD SWAP1 PUSH2 0x210 SWAP2 SWAP1 PUSH2 0xA15 JUMP JUMPDEST PUSH2 0x775 JUMP JUMPDEST PUSH1 0x40 MLOAD PUSH2 0x222 SWAP2 SWAP1 PUSH2 0xA77 JUMP JUMPDEST PUSH1 0x40 MLOAD DUP1 SWAP2 SUB SWAP1 RETURN JUMPDEST PUSH2 0x245 PUSH1 0x4 DUP1 CALLDATASIZE SUB DUP2 ADD SWAP1 PUSH2 0x240 SWAP2 SWAP1 PUSH2 0xC27 JUMP JUMPDEST PUSH2 0x7A3 JUMP JUMPDEST PUSH1 0x40 MLOAD PUSH2 0x252 SWAP2 SWAP1 PUSH2 0xD60 JUMP JUMPDEST PUSH1 0x40 MLOAD DUP1 SWAP2 SUB SWAP1 RETURN JUMPDEST PUSH1 0x0 PUSH1 0x2 DUP3 PUSH1 0x40 MLOAD PUSH2 0x26D SWAP2 SWAP1 PUSH2 0xDBE JUMP JUMPDEST SWAP1 DUP2 MSTORE PUSH1 0x20 ADD PUSH1 0x40 MLOAD DUP1 SWAP2 SUB SWAP1 KECCAK256 SLOAD SWAP1 POP SWAP2 SWAP1 POP JUMP JUMPDEST PUSH1 0x0 DUP1 DUP3 PUSH1 0x40 MLOAD PUSH2 0x294 SWAP2 SWAP1 PUSH2 0xDBE JUMP JUMPDEST SWAP1 DUP2 MSTORE PUSH1 0x20 ADD PUSH1 0x40 MLOAD DUP1 SWAP2 SUB SWAP1 KECCAK256 PUSH1 0x0 SWAP1 SLOAD SWAP1 PUSH2 0x100 EXP SWAP1 DIV PUSH20 0xFFFFFFFFFFFFFFFFFFFFFFFFFFFFFFFFFFFFFFFF AND SWAP1 POP SWAP2 SWAP1 POP JUMP JUMPDEST PUSH1 0x0 PUSH20 0xFFFFFFFFFFFFFFFFFFFFFFFFFFFFFFFFFFFFFFFF AND PUSH1 0x0 DUP3 PUSH1 0x40 MLOAD PUSH2 0x2F2 SWAP2 SWAP1 PUSH2 0xDBE JUMP JUMPDEST SWAP1 DUP2 MSTORE PUSH1 0x20 ADD PUSH1 0x40 MLOAD DUP1 SWAP2 SUB SWAP1 KECCAK256 PUSH1 0x0 SWAP1 SLOAD SWAP1 PUSH2 0x100 EXP SWAP1 DIV PUSH20 0xFFFFFFFFFFFFFFFFFFFFFFFFFFFFFFFFFFFFFFFF AND PUSH20 0xFFFFFFFFFFFFFFFFFFFFFFFFFFFFFFFFFFFFFFFF AND SUB PUSH2 0x377 JUMPI PUSH1 0x40 MLOAD PUSH32 0x8C379A000000000000000000000000000000000000000000000000000000000 DUP2 MSTORE PUSH1 0x4 ADD PUSH2 0x36E SWAP1 PUSH2 0xE21 JUMP JUMPDEST PUSH1 0x40 MLOAD DUP1 SWAP2 SUB SWAP1 REVERT JUMPDEST PUSH1 0x1 PUSH1 0x3 DUP3 PUSH1 0x40 MLOAD PUSH2 0x389 SWAP2 SWAP1 PUSH2 0xDBE JUMP JUMPDEST SWAP1 DUP2 MSTORE PUSH1 0x20 ADD PUSH1 0x40 MLOAD DUP1 SWAP2 SUB SWAP1 KECCAK256 PUSH1 0x0 DUP3 DUP3 SLOAD PUSH2 0x3A6 SWAP2 SWAP1 PUSH2 0xE70 JUMP JUMPDEST SWAP3 POP POP DUP2 SWAP1 SSTORE POP PUSH32 0x309F285F717FF90E17594C98808DCB0B0CBAB3C8DF3A5269BBAD69DF0D027A5 DUP2 PUSH1 0x3 DUP4 PUSH1 0x40 MLOAD PUSH2 0x3DF SWAP2 SWAP1 PUSH2 0xDBE JUMP JUMPDEST SWAP1 DUP2 MSTORE PUSH1 0x20 ADD PUSH1 0x40 MLOAD DUP1 SWAP2 SUB SWAP1 KECCAK256 SLOAD PUSH1 0x40 MLOAD PUSH2 0x3FC SWAP3 SWAP2 SWAP1 PUSH2 0xEA4 JUMP JUMPDEST PUSH1 0x40 MLOAD DUP1 SWAP2 SUB SWAP1 LOG1 POP JUMP JUMPDEST PUSH1 0x0 PUSH1 0x3 DUP3 PUSH1 0x40 MLOAD PUSH2 0x419 SWAP2 SWAP1 PUSH2 0xDBE JUMP JUMPDEST SWAP1 DUP2 MSTORE PUSH1 0x20 ADD PUSH1 0x40 MLOAD DUP1 SWAP2 SUB SWAP1 KECCAK256 SLOAD SWAP1 POP SWAP2 SWAP1 POP JUMP JUMPDEST PUSH1 0x1 PUSH1 0x20 MSTORE DUP2 PUSH1 0x0 MSTORE PUSH1 0x40 PUSH1 0x0 KECCAK256 DUP2 DUP2 SLOAD DUP2 LT PUSH2 0x44B JUMPI PUSH1 0x0 DUP1 REVERT JUMPDEST SWAP1 PUSH1 0x0 MSTORE PUSH1 0x20 PUSH1 0x0 KECCAK256 ADD PUSH1 0x0 SWAP2 POP SWAP2 POP POP DUP1 SLOAD PUSH2 0x467 SWAP1 PUSH2 0xF03 JUMP JUMPDEST DUP1 PUSH1 0x1F ADD PUSH1 0x20 DUP1 SWAP2 DIV MUL PUSH1 0x20 ADD PUSH1 0x40 MLOAD SWAP1 DUP2 ADD PUSH1 0x40 MSTORE DUP1 SWAP3 SWAP2 SWAP1 DUP2 DUP2 MSTORE PUSH1 0x20 ADD DUP3 DUP1 SLOAD PUSH2 0x493 SWAP1 PUSH2 0xF03 JUMP JUMPDEST DUP1 ISZERO PUSH2 0x4E0 JUMPI DUP1 PUSH1 0x1F LT PUSH2 0x4B5 JUMPI PUSH2 0x100 DUP1 DUP4 SLOAD DIV MUL DUP4 MSTORE SWAP2 PUSH1 0x20 ADD SWAP2 PUSH2 0x4E0 JUMP JUMPDEST DUP3 ADD SWAP2 SWAP1 PUSH1 0x0 MSTORE PUSH1 0x20 PUSH1 0x0 KECCAK256 SWAP1 JUMPDEST DUP2 SLOAD DUP2 MSTORE SWAP1 PUSH1 0x1 ADD SWAP1 PUSH1 0x20 ADD DUP1 DUP4 GT PUSH2 0x4C3 JUMPI DUP3 SWAP1 SUB PUSH1 0x1F AND DUP3 ADD SWAP2 JUMPDEST POP POP POP POP POP DUP2 JUMP JUMPDEST PUSH1 0x2 DUP2 DUP1 MLOAD PUSH1 0x20 DUP2 ADD DUP3 ADD DUP1 MLOAD DUP5 DUP3 MSTORE PUSH1 0x20 DUP4 ADD PUSH1 0x20 DUP6 ADD KECCAK256 DUP2 DUP4 MSTORE DUP1 SWAP6 POP POP POP POP POP POP PUSH1 0x0 SWAP2 POP SWAP1 POP SLOAD DUP2 JUMP JUMPDEST PUSH1 0x0 PUSH20 0xFFFFFFFFFFFFFFFFFFFFFFFFFFFFFFFFFFFFFFFF AND PUSH1 0x0 DUP3 PUSH1 0x40 MLOAD PUSH2 0x53E SWAP2 SWAP1 PUSH2 0xDBE JUMP JUMPDEST SWAP1 DUP2 MSTORE PUSH1 0x20 ADD PUSH1 0x40 MLOAD DUP1 SWAP2 SUB SWAP1 KECCAK256 PUSH1 0x0 SWAP1 SLOAD SWAP1 PUSH2 0x100 EXP SWAP1 DIV PUSH20 0xFFFFFFFFFFFFFFFFFFFFFFFFFFFFFFFFFFFFFFFF AND PUSH20 0xFFFFFFFFFFFFFFFFFFFFFFFFFFFFFFFFFFFFFFFF AND EQ PUSH2 0x5C3 JUMPI PUSH1 0x40 MLOAD PUSH32 0x8C379A000000000000000000000000000000000000000000000000000000000 DUP2 MSTORE PUSH1 0x4 ADD PUSH2 0x5BA SWAP1 PUSH2 0xF80 JUMP JUMPDEST PUSH1 0x40 MLOAD DUP1 SWAP2 SUB SWAP1 REVERT JUMPDEST CALLER PUSH1 0x0 DUP3 PUSH1 0x40 MLOAD PUSH2 0x5D4 SWAP2 SWAP1 PUSH2 0xDBE JUMP JUMPDEST SWAP1 DUP2 MSTORE PUSH1 0x20 ADD PUSH1 0x40 MLOAD DUP1 SWAP2 SUB SWAP1 KECCAK256 PUSH1 0x0 PUSH2 0x100 EXP DUP2 SLOAD DUP2 PUSH20 0xFFFFFFFFFFFFFFFFFFFFFFFFFFFFFFFFFFFFFFFF MUL NOT AND SWAP1 DUP4 PUSH20 0xFFFFFFFFFFFFFFFFFFFFFFFFFFFFFFFFFFFFFFFF AND MUL OR SWAP1 SSTORE POP PUSH1 0x1 PUSH1 0x0 CALLER PUSH20 0xFFFFFFFFFFFFFFFFFFFFFFFFFFFFFFFFFFFFFFFF AND PUSH20 0xFFFFFFFFFFFFFFFFFFFFFFFFFFFFFFFFFFFFFFFF AND DUP2 MSTORE PUSH1 0x20 ADD SWAP1 DUP2 MSTORE PUSH1 0x20 ADD PUSH1 0x0 KECCAK256 DUP2 SWAP1 DUP1 PUSH1 0x1 DUP2 SLOAD ADD DUP1 DUP3 SSTORE DUP1 SWAP2 POP POP PUSH1 0x1 SWAP1 SUB SWAP1 PUSH1 0x0 MSTORE PUSH1 0x20 PUSH1 0x0 KECCAK256 ADD PUSH1 0x0 SWAP1 SWAP2 SWAP1 SWAP2 SWAP1 SWAP2 POP SWAP1 DUP2 PUSH2 0x691 SWAP2 SWAP1 PUSH2 0x114C JUMP JUMPDEST POP TIMESTAMP PUSH1 0x2 DUP3 PUSH1 0x40 MLOAD PUSH2 0x6A3 SWAP2 SWAP1 PUSH2 0xDBE JUMP JUMPDEST SWAP1 DUP2 MSTORE PUSH1 0x20 ADD PUSH1 0x40 MLOAD DUP1 SWAP2 SUB SWAP1 KECCAK256 DUP2 SWAP1 SSTORE POP PUSH1 0x0 PUSH1 0x3 DUP3 PUSH1 0x40 MLOAD PUSH2 0x6C7 SWAP2 SWAP1 PUSH2 0xDBE JUMP JUMPDEST SWAP1 DUP2 MSTORE PUSH1 0x20 ADD PUSH1 0x40 MLOAD DUP1 SWAP2 SUB SWAP1 KECCAK256 DUP2 SWAP1 SSTORE POP CALLER PUSH20 0xFFFFFFFFFFFFFFFFFFFFFFFFFFFFFFFFFFFFFFFF AND PUSH32 0x82982FDEB200663D95A47245C0EC408C1D822CBB0653A3F9CEF1A4B68F36A820 DUP3 TIMESTAMP PUSH1 0x40 MLOAD PUSH2 0x721 SWAP3 SWAP2 SWAP1 PUSH2 0xEA4 JUMP JUMPDEST PUSH1 0x40 MLOAD DUP1 SWAP2 SUB SWAP1 LOG2 POP JUMP JUMPDEST PUSH1 0x0 DUP2 DUP1 MLOAD PUSH1 0x20 DUP2 ADD DUP3 ADD DUP1 MLOAD DUP5 DUP3 MSTORE PUSH1 0x20 DUP4 ADD PUSH1 0x20 DUP6 ADD KECCAK256 DUP2 DUP4 MSTORE DUP1 SWAP6 POP POP POP POP POP POP PUSH1 0x0 SWAP2 POP SLOAD SWAP1 PUSH2 0x100 EXP SWAP1 DIV PUSH20 0xFFFFFFFFFFFFFFFFFFFFFFFFFFFFFFFFFFFFFFFF AND DUP2 JUMP JUMPDEST PUSH1 0x3 DUP2 DUP1 MLOAD PUSH1 0x20 DUP2 ADD DUP3 ADD DUP1 MLOAD DUP5 DUP3 MSTORE PUSH1 0x20 DUP4 ADD PUSH1 0x20 DUP6 ADD KECCAK256 DUP2 DUP4 MSTORE DUP1 SWAP6 POP POP POP POP POP POP PUSH1 0x0 SWAP2 POP SWAP1 POP SLOAD DUP2 JUMP JUMPDEST PUSH1 0x60 PUSH1 0x1 PUSH1 0x0 DUP4 PUSH20 0xFFFFFFFFFFFFFFFFFFFFFFFFFFFFFFFFFFFFFFFF AND PUSH20 0xFFFFFFFFFFFFFFFFFFFFFFFFFFFFFFFFFFFFFFFF AND DUP2 MSTORE PUSH1 0x20 ADD SWAP1 DUP2 MSTORE PUSH1 0x20 ADD PUSH1 0x0 KECCAK256 DUP1 SLOAD DUP1 PUSH1 0x20 MUL PUSH1 0x20 ADD PUSH1 0x40 MLOAD SWAP1 DUP2 ADD PUSH1 0x40 MSTORE DUP1 SWAP3 SWAP2 SWAP1 DUP2 DUP2 MSTORE PUSH1 0x20 ADD PUSH1 0x0 SWAP1 JUMPDEST DUP3 DUP3 LT ISZERO PUSH2 0x8B0 JUMPI DUP4 DUP3 SWAP1 PUSH1 0x0 MSTORE PUSH1 0x20 PUSH1 0x0 KECCAK256 ADD DUP1 SLOAD PUSH2 0x823 SWAP1 PUSH2 0xF03 JUMP JUMPDEST DUP1 PUSH1 0x1F ADD PUSH1 0x20 DUP1 SWAP2 DIV MUL PUSH1 0x20 ADD PUSH1 0x40 MLOAD SWAP1 DUP2 ADD PUSH1 0x40 MSTORE DUP1 SWAP3 SWAP2 SWAP1 DUP2 DUP2 MSTORE PUSH1 0x20 ADD DUP3 DUP1 SLOAD PUSH2 0x84F SWAP1 PUSH2 0xF03 JUMP JUMPDEST DUP1 ISZERO PUSH2 0x89C JUMPI DUP1 PUSH1 0x1F LT PUSH2 0x871 JUMPI PUSH2 0x100 DUP1 DUP4 SLOAD DIV MUL DUP4 MSTORE SWAP2 PUSH1 0x20 ADD SWAP2 PUSH2 0x89C JUMP JUMPDEST DUP3 ADD SWAP2 SWAP1 PUSH1 0x0 MSTORE PUSH1 0x20 PUSH1 0x0 KECCAK256 SWAP1 JUMPDEST DUP2 SLOAD DUP2 MSTORE SWAP1 PUSH1 0x1 ADD SWAP1 PUSH1 0x20 ADD DUP1 DUP4 GT PUSH2 0x87F JUMPI DUP3 SWAP1 SUB PUSH1 0x1F AND DUP3 ADD SWAP2 JUMPDEST POP POP POP POP POP DUP2 MSTORE PUSH1 0x20 ADD SWAP1 PUSH1 0x1 ADD SWAP1 PUSH2 0x804 JUMP JUMPDEST POP POP POP POP SWAP1 POP SWAP2 SWAP1 POP JUMP JUMPDEST PUSH1 0x0 PUSH1 0x40 MLOAD SWAP1 POP SWAP1 JUMP JUMPDEST PUSH1 0x0 DUP1 REVERT JUMPDEST PUSH1 0x0 DUP1 REVERT JUMPDEST PUSH1 0x0 DUP1 REVERT JUMPDEST PUSH1 0x0 DUP1 REVERT JUMPDEST PUSH1 0x0 PUSH1 0x1F NOT PUSH1 0x1F DUP4 ADD AND SWAP1 POP SWAP2 SWAP1 POP JUMP JUMPDEST PUSH32 0x4E487B7100000000000000000000000000000000000000000000000000000000 PUSH1 0x0 MSTORE PUSH1 0x41 PUSH1 0x4 MSTORE PUSH1 0x24 PUSH1 0x0 REVERT JUMPDEST PUSH2 0x922 DUP3 PUSH2 0x8D9 JUMP JUMPDEST DUP2 ADD DUP2 DUP2 LT PUSH8 0xFFFFFFFFFFFFFFFF DUP3 GT OR ISZERO PUSH2 0x941 JUMPI PUSH2 0x940 PUSH2 0x8EA JUMP JUMPDEST JUMPDEST DUP1 PUSH1 0x40 MSTORE POP POP POP JUMP JUMPDEST PUSH1 0x0 PUSH2 0x954 PUSH2 0x8BB JUMP JUMPDEST SWAP1 POP PUSH2 0x960 DUP3 DUP3 PUSH2 0x919 JUMP JUMPDEST SWAP2 SWAP1 POP JUMP JUMPDEST PUSH1 0x0 PUSH8 0xFFFFFFFFFFFFFFFF DUP3 GT ISZERO PUSH2 0x980 JUMPI PUSH2 0x97F PUSH2 0x8EA JUMP JUMPDEST JUMPDEST PUSH2 0x989 DUP3 PUSH2 0x8D9 JUMP JUMPDEST SWAP1 POP PUSH1 0x20 DUP2 ADD SWAP1 POP SWAP2 SWAP1 POP JUMP JUMPDEST DUP3 DUP2 DUP4 CALLDATACOPY PUSH1 0x0 DUP4 DUP4 ADD MSTORE POP POP POP JUMP JUMPDEST PUSH1 0x0 PUSH2 0x9B8 PUSH2 0x9B3 DUP5 PUSH2 0x965 JUMP JUMPDEST PUSH2 0x94A JUMP JUMPDEST SWAP1 POP DUP3 DUP2 MSTORE PUSH1 0x20 DUP2 ADD DUP5 DUP5 DUP5 ADD GT ISZERO PUSH2 0x9D4 JUMPI PUSH2 0x9D3 PUSH2 0x8D4 JUMP JUMPDEST JUMPDEST PUSH2 0x9DF DUP5 DUP3 DUP6 PUSH2 0x996 JUMP JUMPDEST POP SWAP4 SWAP3 POP POP POP JUMP JUMPDEST PUSH1 0x0 DUP3 PUSH1 0x1F DUP4 ADD SLT PUSH2 0x9FC JUMPI PUSH2 0x9FB PUSH2 0x8CF JUMP JUMPDEST JUMPDEST DUP2 CALLDATALOAD PUSH2 0xA0C DUP5 DUP3 PUSH1 0x20 DUP7 ADD PUSH2 0x9A5 JUMP JUMPDEST SWAP2 POP POP SWAP3 SWAP2 POP POP JUMP JUMPDEST PUSH1 0x0 PUSH1 0x20 DUP3 DUP5 SUB SLT ISZERO PUSH2 0xA2B JUMPI PUSH2 0xA2A PUSH2 0x8C5 JUMP JUMPDEST JUMPDEST PUSH1 0x0 DUP3 ADD CALLDATALOAD PUSH8 0xFFFFFFFFFFFFFFFF DUP2 GT ISZERO PUSH2 0xA49 JUMPI PUSH2 0xA48 PUSH2 0x8CA JUMP JUMPDEST JUMPDEST PUSH2 0xA55 DUP5 DUP3 DUP6 ADD PUSH2 0x9E7 JUMP JUMPDEST SWAP2 POP POP SWAP3 SWAP2 POP POP JUMP JUMPDEST PUSH1 0x0 DUP2 SWAP1 POP SWAP2 SWAP1 POP JUMP JUMPDEST PUSH2 0xA71 DUP2 PUSH2 0xA5E JUMP JUMPDEST DUP3 MSTORE POP POP JUMP JUMPDEST PUSH1 0x0 PUSH1 0x20 DUP3 ADD SWAP1 POP PUSH2 0xA8C PUSH1 0x0 DUP4 ADD DUP5 PUSH2 0xA68 JUMP JUMPDEST SWAP3 SWAP2 POP POP JUMP JUMPDEST PUSH1 0x0 PUSH20 0xFFFFFFFFFFFFFFFFFFFFFFFFFFFFFFFFFFFFFFFF DUP3 AND SWAP1 POP SWAP2 SWAP1 POP JUMP JUMPDEST PUSH1 0x0 PUSH2 0xABD DUP3 PUSH2 0xA92 JUMP JUMPDEST SWAP1 POP SWAP2 SWAP1 POP JUMP JUMPDEST PUSH2 0xACD DUP2 PUSH2 0xAB2 JUMP JUMPDEST DUP3 MSTORE POP POP JUMP JUMPDEST PUSH1 0x0 PUSH1 0x20 DUP3 ADD SWAP1 POP PUSH2 0xAE8 PUSH1 0x0 DUP4 ADD DUP5 PUSH2 0xAC4 JUMP JUMPDEST SWAP3 SWAP2 POP POP JUMP JUMPDEST PUSH2 0xAF7 DUP2 PUSH2 0xAB2 JUMP JUMPDEST DUP2 EQ PUSH2 0xB02 JUMPI PUSH1 0x0 DUP1 REVERT JUMPDEST POP JUMP JUMPDEST PUSH1 0x0 DUP2 CALLDATALOAD SWAP1 POP PUSH2 0xB14 DUP2 PUSH2 0xAEE JUMP JUMPDEST SWAP3 SWAP2 POP POP JUMP JUMPDEST PUSH2 0xB23 DUP2 PUSH2 0xA5E JUMP JUMPDEST DUP2 EQ PUSH2 0xB2E JUMPI PUSH1 0x0 DUP1 REVERT JUMPDEST POP JUMP JUMPDEST PUSH1 0x0 DUP2 CALLDATALOAD SWAP1 POP PUSH2 0xB40 DUP2 PUSH2 0xB1A JUMP JUMPDEST SWAP3 SWAP2 POP POP JUMP JUMPDEST PUSH1 0x0 DUP1 PUSH1 0x40 DUP4 DUP6 SUB SLT ISZERO PUSH2 0xB5D JUMPI PUSH2 0xB5C PUSH2 0x8C5 JUMP JUMPDEST JUMPDEST PUSH1 0x0 PUSH2 0xB6B DUP6 DUP3 DUP7 ADD PUSH2 0xB05 JUMP JUMPDEST SWAP3 POP POP PUSH1 0x20 PUSH2 0xB7C DUP6 DUP3 DUP7 ADD PUSH2 0xB31 JUMP JUMPDEST SWAP2 POP POP SWAP3 POP SWAP3 SWAP1 POP JUMP JUMPDEST PUSH1 0x0 DUP2 MLOAD SWAP1 POP SWAP2 SWAP1 POP JUMP JUMPDEST PUSH1 0x0 DUP3 DUP3 MSTORE PUSH1 0x20 DUP3 ADD SWAP1 POP SWAP3 SWAP2 POP POP JUMP JUMPDEST PUSH1 0x0 JUMPDEST DUP4 DUP2 LT ISZERO PUSH2 0xBC0 JUMPI DUP1 DUP3 ADD MLOAD DUP2 DUP5 ADD MSTORE PUSH1 0x20 DUP2 ADD SWAP1 POP PUSH2 0xBA5 JUMP JUMPDEST PUSH1 0x0 DUP5 DUP5 ADD MSTORE POP POP POP POP JUMP JUMPDEST PUSH1 0x0 PUSH2 0xBD7 DUP3 PUSH2 0xB86 JUMP JUMPDEST PUSH2 0xBE1 DUP2 DUP6 PUSH2 0xB91 JUMP JUMPDEST SWAP4 POP PUSH2 0xBF1 DUP2 DUP6 PUSH1 0x20 DUP7 ADD PUSH2 0xBA2 JUMP JUMPDEST PUSH2 0xBFA DUP2 PUSH2 0x8D9 JUMP JUMPDEST DUP5 ADD SWAP2 POP POP SWAP3 SWAP2 POP POP JUMP JUMPDEST PUSH1 0x0 PUSH1 0x20 DUP3 ADD SWAP1 POP DUP2 DUP2 SUB PUSH1 0x0 DUP4 ADD MSTORE PUSH2 0xC1F DUP2 DUP5 PUSH2 0xBCC JUMP JUMPDEST SWAP1 POP SWAP3 SWAP2 POP POP JUMP JUMPDEST PUSH1 0x0 PUSH1 0x20 DUP3 DUP5 SUB SLT ISZERO PUSH2 0xC3D JUMPI PUSH2 0xC3C PUSH2 0x8C5 JUMP JUMPDEST JUMPDEST PUSH1 0x0 PUSH2 0xC4B DUP5 DUP3 DUP6 ADD PUSH2 0xB05 JUMP JUMPDEST SWAP2 POP POP SWAP3 SWAP2 POP POP JUMP JUMPDEST PUSH1 0x0 DUP2 MLOAD SWAP1 POP SWAP2 SWAP1 POP JUMP JUMPDEST PUSH1 0x0 DUP3 DUP3 MSTORE PUSH1 0x20 DUP3 ADD SWAP1 POP SWAP3 SWAP2 POP POP JUMP JUMPDEST PUSH1 0x0 DUP2 SWAP1 POP PUSH1 0x20 DUP3 ADD SWAP1 POP SWAP2 SWAP1 POP JUMP JUMPDEST PUSH1 0x0 DUP3 DUP3 MSTORE PUSH1 0x20 DUP3 ADD SWAP1 POP SWAP3 SWAP2 POP POP JUMP JUMPDEST PUSH1 0x0 PUSH2 0xC9C DUP3 PUSH2 0xB86 JUMP JUMPDEST PUSH2 0xCA6 DUP2 DUP6 PUSH2 0xC80 JUMP JUMPDEST SWAP4 POP PUSH2 0xCB6 DUP2 DUP6 PUSH1 0x20 DUP7 ADD PUSH2 0xBA2 JUMP JUMPDEST PUSH2 0xCBF DUP2 PUSH2 0x8D9 JUMP JUMPDEST DUP5 ADD SWAP2 POP POP SWAP3 SWAP2 POP POP JUMP JUMPDEST PUSH1 0x0 PUSH2 0xCD6 DUP4 DUP4 PUSH2 0xC91 JUMP JUMPDEST SWAP1 POP SWAP3 SWAP2 POP POP JUMP JUMPDEST PUSH1 0x0 PUSH1 0x20 DUP3 ADD SWAP1 POP SWAP2 SWAP1 POP JUMP JUMPDEST PUSH1 0x0 PUSH2 0xCF6 DUP3 PUSH2 0xC54 JUMP JUMPDEST PUSH2 0xD00 DUP2 DUP6 PUSH2 0xC5F JUMP JUMPDEST SWAP4 POP DUP4 PUSH1 0x20 DUP3 MUL DUP6 ADD PUSH2 0xD12 DUP6 PUSH2 0xC70 JUMP JUMPDEST DUP1 PUSH1 0x0 JUMPDEST DUP6 DUP2 LT ISZERO PUSH2 0xD4E JUMPI DUP5 DUP5 SUB DUP10 MSTORE DUP2 MLOAD PUSH2 0xD2F DUP6 DUP3 PUSH2 0xCCA JUMP JUMPDEST SWAP5 POP PUSH2 0xD3A DUP4 PUSH2 0xCDE JUMP JUMPDEST SWAP3 POP PUSH1 0x20 DUP11 ADD SWAP10 POP POP PUSH1 0x1 DUP2 ADD SWAP1 POP PUSH2 0xD16 JUMP JUMPDEST POP DUP3 SWAP8 POP DUP8 SWAP6 POP POP POP POP POP POP SWAP3 SWAP2 POP POP JUMP JUMPDEST PUSH1 0x0 PUSH1 0x20 DUP3 ADD SWAP1 POP DUP2 DUP2 SUB PUSH1 0x0 DUP4 ADD MSTORE PUSH2 0xD7A DUP2 DUP5 PUSH2 0xCEB JUMP JUMPDEST SWAP1 POP SWAP3 SWAP2 POP POP JUMP JUMPDEST PUSH1 0x0 DUP2 SWAP1 POP SWAP3 SWAP2 POP POP JUMP JUMPDEST PUSH1 0x0 PUSH2 0xD98 DUP3 PUSH2 0xB86 JUMP JUMPDEST PUSH2 0xDA2 DUP2 DUP6 PUSH2 0xD82 JUMP JUMPDEST SWAP4 POP PUSH2 0xDB2 DUP2 DUP6 PUSH1 0x20 DUP7 ADD PUSH2 0xBA2 JUMP JUMPDEST DUP1 DUP5 ADD SWAP2 POP POP SWAP3 SWAP2 POP POP JUMP JUMPDEST PUSH1 0x0 PUSH2 0xDCA DUP3 DUP5 PUSH2 0xD8D JUMP JUMPDEST SWAP2 POP DUP2 SWAP1 POP SWAP3 SWAP2 POP POP JUMP JUMPDEST PUSH32 0x53686F727420636F6465206E6F74207265676973746572656400000000000000 PUSH1 0x0 DUP3 ADD MSTORE POP JUMP JUMPDEST PUSH1 0x0 PUSH2 0xE0B PUSH1 0x19 DUP4 PUSH2 0xB91 JUMP JUMPDEST SWAP2 POP PUSH2 0xE16 DUP3 PUSH2 0xDD5 JUMP JUMPDEST PUSH1 0x20 DUP3 ADD SWAP1 POP SWAP2 SWAP1 POP JUMP JUMPDEST PUSH1 0x0 PUSH1 0x20 DUP3 ADD SWAP1 POP DUP2 DUP2 SUB PUSH1 0x0 DUP4 ADD MSTORE PUSH2 0xE3A DUP2 PUSH2 0xDFE JUMP JUMPDEST SWAP1 POP SWAP2 SWAP1 POP JUMP JUMPDEST PUSH32 0x4E487B7100000000000000000000000000000000000000000000000000000000 PUSH1 0x0 MSTORE PUSH1 0x11 PUSH1 0x4 MSTORE PUSH1 0x24 PUSH1 0x0 REVERT JUMPDEST PUSH1 0x0 PUSH2 0xE7B DUP3 PUSH2 0xA5E JUMP JUMPDEST SWAP2 POP PUSH2 0xE86 DUP4 PUSH2 0xA5E JUMP JUMPDEST SWAP3 POP DUP3 DUP3 ADD SWAP1 POP DUP1 DUP3 GT ISZERO PUSH2 0xE9E JUMPI PUSH2 0xE9D PUSH2 0xE41 JUMP JUMPDEST JUMPDEST SWAP3 SWAP2 POP POP JUMP JUMPDEST PUSH1 0x0 PUSH1 0x40 DUP3 ADD SWAP1 POP DUP2 DUP2 SUB PUSH1 0x0 DUP4 ADD MSTORE PUSH2 0xEBE DUP2 DUP6 PUSH2 0xBCC JUMP JUMPDEST SWAP1 POP PUSH2 0xECD PUSH1 0x20 DUP4 ADD DUP5 PUSH2 0xA68 JUMP JUMPDEST SWAP4 SWAP3 POP POP POP JUMP JUMPDEST PUSH32 0x4E487B7100000000000000000000000000000000000000000000000000000000 PUSH1 0x0 MSTORE PUSH1 0x22 PUSH1 0x4 MSTORE PUSH1 0x24 PUSH1 0x0 REVERT JUMPDEST PUSH1 0x0 PUSH1 0x2 DUP3 DIV SWAP1 POP PUSH1 0x1 DUP3 AND DUP1 PUSH2 0xF1B JUMPI PUSH1 0x7F DUP3 AND SWAP2 POP JUMPDEST PUSH1 0x20 DUP3 LT DUP2 SUB PUSH2 0xF2E JUMPI PUSH2 0xF2D PUSH2 0xED4 JUMP JUMPDEST JUMPDEST POP SWAP2 SWAP1 POP JUMP JUMPDEST PUSH32 0x53686F727420636F646520616C72656164792072656769737465726564000000 PUSH1 0x0 DUP3 ADD MSTORE POP JUMP JUMPDEST PUSH1 0x0 PUSH2 0xF6A PUSH1 0x1D DUP4 PUSH2 0xB91 JUMP JUMPDEST SWAP2 POP PUSH2 0xF75 DUP3 PUSH2 0xF34 JUMP JUMPDEST PUSH1 0x20 DUP3 ADD SWAP1 POP SWAP2 SWAP1 POP JUMP JUMPDEST PUSH1 0x0 PUSH1 0x20 DUP3 ADD SWAP1 POP DUP2 DUP2 SUB PUSH1 0x0 DUP4 ADD MSTORE PUSH2 0xF99 DUP2 PUSH2 0xF5D JUMP JUMPDEST SWAP1 POP SWAP2 SWAP1 POP JUMP JUMPDEST PUSH1 0x0 DUP2 SWAP1 POP DUP2 PUSH1 0x0 MSTORE PUSH1 0x20 PUSH1 0x0 KECCAK256 SWAP1 POP SWAP2 SWAP1 POP JUMP JUMPDEST PUSH1 0x0 PUSH1 0x20 PUSH1 0x1F DUP4 ADD DIV SWAP1 POP SWAP2 SWAP1 POP JUMP JUMPDEST PUSH1 0x0 DUP3 DUP3 SHL SWAP1 POP SWAP3 SWAP2 POP POP JUMP JUMPDEST PUSH1 0x0 PUSH1 0x8 DUP4 MUL PUSH2 0x1002 PUSH32 0xFFFFFFFFFFFFFFFFFFFFFFFFFFFFFFFFFFFFFFFFFFFFFFFFFFFFFFFFFFFFFFFF DUP3 PUSH2 0xFC5 JUMP JUMPDEST PUSH2 0x100C DUP7 DUP4 PUSH2 0xFC5 JUMP JUMPDEST SWAP6 POP DUP1 NOT DUP5 AND SWAP4 POP DUP1 DUP7 AND DUP5 OR SWAP3 POP POP POP SWAP4 SWAP3 POP POP POP JUMP JUMPDEST PUSH1 0x0 DUP2 SWAP1 POP SWAP2 SWAP1 POP JUMP JUMPDEST PUSH1 0x0 PUSH2 0x1049 PUSH2 0x1044 PUSH2 0x103F DUP5 PUSH2 0xA5E JUMP JUMPDEST PUSH2 0x1024 JUMP JUMPDEST PUSH2 0xA5E JUMP JUMPDEST SWAP1 POP SWAP2 SWAP1 POP JUMP JUMPDEST PUSH1 0x0 DUP2 SWAP1 POP SWAP2 SWAP1 POP JUMP JUMPDEST PUSH2 0x1063 DUP4 PUSH2 0x102E JUMP JUMPDEST PUSH2 0x1077 PUSH2 0x106F DUP3 PUSH2 0x1050 JUMP JUMPDEST DUP5 DUP5 SLOAD PUSH2 0xFD2 JUMP JUMPDEST DUP3 SSTORE POP POP POP POP JUMP JUMPDEST PUSH1 0x0 SWAP1 JUMP JUMPDEST PUSH2 0x108C PUSH2 0x107F JUMP JUMPDEST PUSH2 0x1097 DUP2 DUP5 DUP5 PUSH2 0x105A JUMP JUMPDEST POP POP POP JUMP JUMPDEST JUMPDEST DUP2 DUP2 LT ISZERO PUSH2 0x10BB JUMPI PUSH2 0x10B0 PUSH1 0x0 DUP3 PUSH2 0x1084 JUMP JUMPDEST PUSH1 0x1 DUP2 ADD SWAP1 POP PUSH2 0x109D JUMP JUMPDEST POP POP JUMP JUMPDEST PUSH1 0x1F DUP3 GT ISZERO PUSH2 0x1100 JUMPI PUSH2 0x10D1 DUP2 PUSH2 0xFA0 JUMP JUMPDEST PUSH2 0x10DA DUP5 PUSH2 0xFB5 JUMP JUMPDEST DUP2 ADD PUSH1 0x20 DUP6 LT ISZERO PUSH2 0x10E9 JUMPI DUP2 SWAP1 POP JUMPDEST PUSH2 0x10FD PUSH2 0x10F5 DUP6 PUSH2 0xFB5 JUMP JUMPDEST DUP4 ADD DUP3 PUSH2 0x109C JUMP JUMPDEST POP POP JUMPDEST POP POP POP JUMP JUMPDEST PUSH1 0x0 DUP3 DUP3 SHR SWAP1 POP SWAP3 SWAP2 POP POP JUMP JUMPDEST PUSH1 0x0 PUSH2 0x1123 PUSH1 0x0 NOT DUP5 PUSH1 0x8 MUL PUSH2 0x1105 JUMP JUMPDEST NOT DUP1 DUP4 AND SWAP2 POP POP SWAP3 SWAP2 POP POP JUMP JUMPDEST PUSH1 0x0 PUSH2 0x113C DUP4 DUP4 PUSH2 0x1112 JUMP JUMPDEST SWAP2 POP DUP3 PUSH1 0x2 MUL DUP3 OR SWAP1 POP SWAP3 SWAP2 POP POP JUMP JUMPDEST PUSH2 0x1155 DUP3 PUSH2 0xB86 JUMP JUMPDEST PUSH8 0xFFFFFFFFFFFFFFFF DUP2 GT ISZERO PUSH2 0x116E JUMPI PUSH2 0x116D PUSH2 0x8EA JUMP JUMPDEST JUMPDEST PUSH2 0x1178 DUP3 SLOAD PUSH2 0xF03 JUMP JUMPDEST PUSH2 0x1183 DUP3 DUP3 DUP6 PUSH2 0x10BF JUMP JUMPDEST PUSH1 0x0 PUSH1 0x20 SWAP1 POP PUSH1 0x1F DUP4 GT PUSH1 0x1 DUP2 EQ PUSH2 0x11B6 JUMPI PUSH1 0x0 DUP5 ISZERO PUSH2 0x11A4 JUMPI DUP3 DUP8 ADD MLOAD SWAP1 POP JUMPDEST PUSH2 0x11AE DUP6 DUP3 PUSH2 0x1130 JUMP JUMPDEST DUP7 SSTORE POP PUSH2 0x1216 JUMP JUMPDEST PUSH1 0x1F NOT DUP5 AND PUSH2 0x11C4 DUP7 PUSH2 0xFA0 JUMP JUMPDEST PUSH1 0x0 JUMPDEST DUP3 DUP2 LT ISZERO PUSH2 0x11EC JUMPI DUP5 DUP10 ADD MLOAD DUP3 SSTORE PUSH1 0x1 DUP3 ADD SWAP2 POP PUSH1 0x20 DUP6 ADD SWAP5 POP PUSH1 0x20 DUP2 ADD SWAP1 POP PUSH2 0x11C7 JUMP JUMPDEST DUP7 DUP4 LT ISZERO PUSH2 0x1209 JUMPI DUP5 DUP10 ADD MLOAD PUSH2 0x1205 PUSH1 0x1F DUP10 AND DUP3 PUSH2 0x1112 JUMP JUMPDEST DUP4 SSTORE POP JUMPDEST PUSH1 0x1 PUSH1 0x2 DUP9 MUL ADD DUP9 SSTORE POP POP POP JUMPDEST POP POP POP POP POP POP JUMP INVALID LOG2 PUSH5 0x6970667358 0x22 SLT KECCAK256 0xAD PUSH27 0xDFAF066CB54B760DFF3328D0C255CBE7AD698B86FFEC3D35145E7F EXP CALLVALUE 0xCE PUSH5 0x736F6C6343 STOP ADDMOD EQ STOP CALLER "},"methodIdentifiers":{"getUrlClicks(string)":"72858848","getUrlCreatedAt(string)":"0b573983","getUrlOwner(string)":"2117c74e","getUserUrls(address)":"e687fb51","incrementClick(string)":"34f5d070","registerURL(string)":"aaf86a7a","urlClicks(string)":"ccee758c","urlCreatedAt(string)":"89385339","urlOwners(string)":"cca6d243","userUrls(address,uint256)":"7c84d9e9"}}}}}