{
  "_format": "hh-sol-artifact-1",
  "contractName": "URLRegistry",
  "sourceName": "contracts/URLRegistry.sol",
  "abi": [
    {
      "anonymous": false,
      "inputs": [
        {
          "indexed": false,
          "internalType": "string",
          "name": "shortCode",
          "type": "string"
        },
        {
          "indexed": false,
          "internalType": "uint256",
          "name": "newClickCount",
          "type": "uint256"
        }
      ],
      "name": "URLClicked",
      "type": "event"
    },
    {
      "anonymous": false,
      "inputs": [
        {
          "indexed": true,
          "internalType": "address",
          "name": "owner",
          "type": "address"
        },
        {
          "indexed": false,
          "internalType": "string",
          "name": "shortCode",
          "type": "string"
        },
        {
          "indexed": false,
          "internalType": "uint256",
          "name": "timestamp",
          "type": "uint256"
        }
      ],
      "name": "URLRegistered",
      "type": "event"
    },
    {
      "inputs": [
        {
          "internalType": "string",
          "name": "shortCode",
          "type": "string"
        }
      ],
      "name": "getUrlClicks",
      "outputs": [
        {
          "internalType": "uint256",
          "name": "",
          "type": "uint256"
        }
      ],
      "stateMutability": "view",
      "type": "function"
    },
    {
      "inputs": [
        {
          "internalType": "string",
          "name": "shortCode",
          "type": "string"
        }
      ],
      "name": "getUrlCreatedAt",
      "outputs": [
        {
          "internalType": "uint256",
          "name": "",
          "type": "uint256"
        }
      ],
      "stateMutability": "view",
      "type": "function"
    },
    {
      "inputs": [
        {
          "internalType": "string",
          "name": "shortCode",
          "type": "string"
        }
      ],
      "name": "getUrlOwner",
      "outputs": [
        {
          "internalType": "address",
          "name": "",
          "type": "address"
        }
      ],
      "stateMutability": "view",
      "type": "function"
    },
    {
      "inputs": [
        {
          "internalType": "address",
          "name": "user",
          "type": "address"
        }
      ],
      "name": "getUserUrls",
      "outputs": [
        {
          "internalType": "string[]",
          "name": "",
          "type": "string[]"
        }
      ],
      "stateMutability": "view",
      "type": "function"
    },
    {
      "inputs": [
        {
          "internalType": "string",
          "name": "shortCode",
          "type": "string"
        }
      ],
      "name": "incrementClick",
      "outputs": [],
      "stateMutability": "nonpayable",
      "type": "function"
    },
    {
      "inputs": [
        {
          "internalType": "string",
          "name": "shortCode",
          "type": "string"
        }
      ],
      "name": "registerURL",
      "outputs": [],
      "stateMutability": "nonpayable",
      "type": "function"
    },
    {
      "inputs": [
        {
          "internalType": "string",
          "name": "",
          "type": "string"
        }
      ],
      "name": "urlClicks",
      "outputs": [
        {
          "internalType": "uint256",
          "name": "",
          "type": "uint256"
        }
      ],
      "stateMutability": "view",
      "type": "function"
    },
    {
      "inputs": [
        {
          "internalType": "string",
          "name": "",
          "type": "string"
        }
      ],
      "name": "urlCreatedAt",
      "outputs": [
        {
          "internalType": "uint256",
          "name": "",
          "type": "uint256"
        }
      ],
      "stateMutability": "view",
      "type": "function"
    },
    {
      "inputs": [
        {
          "internalType": "string",
          "name": "",
          "type": "string"
        }
      ],
      "name": "urlOwners",
      "outputs": [
        {
          "internalType": "address",
          "name": "",
          "type": "address"
        }
      ],
      "stateMutability": "view",
      "type": "function"
    },
    {
      "inputs": [
        {
          "internalType": "address",
          "name": "",
          "type": "address"
        },
        {
          "internalType": "uint256",
          "name": "",
          "type": "uint256"
        }
      ],
      "name": "userUrls",
      "outputs": [
        {
          "internalType": "string",
          "name": "",
          "type": "string"
        }
      ],
      "stateMutability": "view",
      "type": "function"
    }
  ],
  "bytecode": "0x608060405234801561001057600080fd5b50611254806100206000396000f3fe608060405234801561001057600080fd5b506004361061009e5760003560e01c80638938533911610066578063893853391461017f578063aaf86a7a146101af578063cca6d243146101cb578063ccee758c146101fb578063e687fb511461022b5761009e565b80630b573983146100a35780632117c74e146100d357806334f5d07014610103578063728588481461011f5780637c84d9e91461014f575b600080fd5b6100bd60048036038101906100b89190610a15565b61025b565b6040516100ca9190610a77565b60405180910390f35b6100ed60048036038101906100e89190610a15565b610283565b6040516100fa9190610ad3565b60405180910390f35b61011d60048036038101906101189190610a15565b6102ca565b005b61013960048036038101906101349190610a15565b610407565b6040516101469190610a77565b60405180910390f35b61016960048036038101906101649190610b46565b61042f565b6040516101769190610c05565b60405180910390f35b61019960048036038101906101949190610a15565b6104e8565b6040516101a69190610a77565b60405180910390f35b6101c960048036038101906101c49190610a15565b610516565b005b6101e560048036038101906101e09190610a15565b61072c565b6040516101f29190610ad3565b60405180910390f35b61021560048036038101906102109190610a15565b610775565b6040516102229190610a77565b60405180910390f35b61024560048036038101906102409190610c27565b6107a3565b6040516102529190610d60565b60405180910390f35b600060028260405161026d9190610dbe565b9081526020016040518091039020549050919050565b600080826040516102949190610dbe565b908152602001604051809103902060009054906101000a900473ffffffffffffffffffffffffffffffffffffffff169050919050565b600073ffffffffffffffffffffffffffffffffffffffff166000826040516102f29190610dbe565b908152602001604051809103902060009054906101000a900473ffffffffffffffffffffffffffffffffffffffff1673ffffffffffffffffffffffffffffffffffffffff1603610377576040517f08c379a000000000000000000000000000000000000000000000000000000000815260040161036e90610e21565b60405180910390fd5b60016003826040516103899190610dbe565b908152602001604051809103902060008282546103a69190610e70565b925050819055507f0309f285f717ff90e17594c98808dcb0b0cbab3c8df3a5269bbad69df0d027a5816003836040516103df9190610dbe565b9081526020016040518091039020546040516103fc929190610ea4565b60405180910390a150565b60006003826040516104199190610dbe565b9081526020016040518091039020549050919050565b6001602052816000526040600020818154811061044b57600080fd5b9060005260206000200160009150915050805461046790610f03565b80601f016020809104026020016040519081016040528092919081815260200182805461049390610f03565b80156104e05780601f106104b5576101008083540402835291602001916104e0565b820191906000526020600020905b8154815290600101906020018083116104c357829003601f168201915b505050505081565b6002818051602081018201805184825260208301602085012081835280955050505050506000915090505481565b600073ffffffffffffffffffffffffffffffffffffffff1660008260405161053e9190610dbe565b908152602001604051809103902060009054906101000a900473ffffffffffffffffffffffffffffffffffffffff1673ffffffffffffffffffffffffffffffffffffffff16146105c3576040517f08c379a00000000000000000000000000000000000000000000000000000000081526004016105ba90610f80565b60405180910390fd5b336000826040516105d49190610dbe565b908152602001604051809103902060006101000a81548173ffffffffffffffffffffffffffffffffffffffff021916908373ffffffffffffffffffffffffffffffffffffffff160217905550600160003373ffffffffffffffffffffffffffffffffffffffff1673ffffffffffffffffffffffffffffffffffffffff16815260200190815260200160002081908060018154018082558091505060019003906000526020600020016000909190919091509081610691919061114c565b50426002826040516106a39190610dbe565b90815260200160405180910390208190555060006003826040516106c79190610dbe565b9081526020016040518091039020819055503373ffffffffffffffffffffffffffffffffffffffff167f82982fdeb200663d95a47245c0ec408c1d822cbb0653a3f9cef1a4b68f36a8208242604051610721929190610ea4565b60405180910390a250565b6000818051602081018201805184825260208301602085012081835280955050505050506000915054906101000a900473ffffffffffffffffffffffffffffffffffffffff1681565b6003818051602081018201805184825260208301602085012081835280955050505050506000915090505481565b6060600160008373ffffffffffffffffffffffffffffffffffffffff1673ffffffffffffffffffffffffffffffffffffffff168152602001908152602001600020805480602002602001604051908101604052809291908181526020016000905b828210156108b057838290600052602060002001805461082390610f03565b80601f016020809104026020016040519081016040528092919081815260200182805461084f90610f03565b801561089c5780601f106108715761010080835404028352916020019161089c565b820191906000526020600020905b81548152906001019060200180831161087f57829003601f168201915b505050505081526020019060010190610804565b505050509050919050565b6000604051905090565b600080fd5b600080fd5b600080fd5b600080fd5b6000601f19601f8301169050919050565b7f4e487b7100000000000000000000000000000000000000000000000000000000600052604160045260246000fd5b610922826108d9565b810181811067ffffffffffffffff82111715610941576109406108ea565b5b80604052505050565b60006109546108bb565b90506109608282610919565b919050565b600067ffffffffffffffff8211156109805761097f6108ea565b5b610989826108d9565b9050602081019050919050565b82818337600083830152505050565b60006109b86109b384610965565b61094a565b9050828152602081018484840111156109d4576109d36108d4565b5b6109df848285610996565b509392505050565b600082601f8301126109fc576109fb6108cf565b5b8135610a0c8482602086016109a5565b91505092915050565b600060208284031215610a2b57610a2a6108c5565b5b600082013567ffffffffffffffff811115610a4957610a486108ca565b5b610a55848285016109e7565b91505092915050565b6000819050919050565b610a7181610a5e565b82525050565b6000602082019050610a8c6000830184610a68565b92915050565b600073ffffffffffffffffffffffffffffffffffffffff82169050919050565b6000610abd82610a92565b9050919050565b610acd81610ab2565b82525050565b6000602082019050610ae86000830184610ac4565b92915050565b610af781610ab2565b8114610b0257600080fd5b50565b600081359050610b1481610aee565b92915050565b610b2381610a5e565b8114610b2e57600080fd5b50565b600081359050610b4081610b1a565b92915050565b60008060408385031215610b5d57610b5c6108c5565b5b6000610b6b85828601610b05565b9250506020610b7c85828601610b31565b9150509250929050565b600081519050919050565b600082825260208201905092915050565b60005b83811015610bc0578082015181840152602081019050610ba5565b60008484015250505050565b6000610bd782610b86565b610be18185610b91565b9350610bf1818560208601610ba2565b610bfa816108d9565b840191505092915050565b60006020820190508181036000830152610c1f8184610bcc565b905092915050565b600060208284031215610c3d57610c3c6108c5565b5b6000610c4b84828501610b05565b91505092915050565b600081519050919050565b600082825260208201905092915050565b6000819050602082019050919050565b600082825260208201905092915050565b6000610c9c82610b86565b610ca68185610c80565b9350610cb6818560208601610ba2565b610cbf816108d9565b840191505092915050565b6000610cd68383610c91565b905092915050565b6000602082019050919050565b6000610cf682610c54565b610d008185610c5f565b935083602082028501610d1285610c70565b8060005b85811015610d4e5784840389528151610d2f8582610cca565b9450610d3a83610cde565b925060208a01995050600181019050610d16565b50829750879550505050505092915050565b60006020820190508181036000830152610d7a8184610ceb565b905092915050565b600081905092915050565b6000610d9882610b86565b610da28185610d82565b9350610db2818560208601610ba2565b80840191505092915050565b6000610dca8284610d8d565b915081905092915050565b7f53686f727420636f6465206e6f74207265676973746572656400000000000000600082015250565b6000610e0b601983610b91565b9150610e1682610dd5565b602082019050919050565b60006020820190508181036000830152610e3a81610dfe565b9050919050565b7f4e487b7100000000000000000000000000000000000000000000000000000000600052601160045260246000fd5b6000610e7b82610a5e565b9150610e8683610a5e565b9250828201905080821115610e9e57610e9d610e41565b5b92915050565b60006040820190508181036000830152610ebe8185610bcc565b9050610ecd6020830184610a68565b9392505050565b7f4e487b7100000000000000000000000000000000000000000000000000000000600052602260045260246000fd5b60006002820490506001821680610f1b57607f821691505b602082108103610f2e57610f2d610ed4565b5b50919050565b7f53686f727420636f646520616c72656164792072656769737465726564000000600082015250565b6000610f6a601d83610b91565b9150610f7582610f34565b602082019050919050565b60006020820190508181036000830152610f9981610f5d565b9050919050565b60008190508160005260206000209050919050565b60006020601f8301049050919050565b600082821b905092915050565b6000600883026110027fffffffffffffffffffffffffffffffffffffffffffffffffffffffffffffffff82610fc5565b61100c8683610fc5565b95508019841693508086168417925050509392505050565b6000819050919050565b600061104961104461103f84610a5e565b611024565b610a5e565b9050919050565b6000819050919050565b6110638361102e565b61107761106f82611050565b848454610fd2565b825550505050565b600090565b61108c61107f565b61109781848461105a565b505050565b5b818110156110bb576110b0600082611084565b60018101905061109d565b5050565b601f821115611100576110d181610fa0565b6110da84610fb5565b810160208510156110e9578190505b6110fd6110f585610fb5565b83018261109c565b50505b505050565b600082821c905092915050565b600061112360001984600802611105565b1980831691505092915050565b600061113c8383611112565b9150826002028217905092915050565b61115582610b86565b67ffffffffffffffff81111561116e5761116d6108ea565b5b6111788254610f03565b6111838282856110bf565b600060209050601f8311600181146111b657600084156111a4578287015190505b6111ae8582611130565b865550611216565b601f1984166111c486610fa0565b60005b828110156111ec578489015182556001820191506020850194506020810190506111c7565b868310156112095784890151611205601f891682611112565b8355505b6001600288020188555050505b50505050505056fea2646970667358221220ad7adfaf066cb54b760dff3328d0c255cbe7ad698b86ffec3d35145e7f0a34ce64736f6c63430008140033",
  "linkReferences": {},
  "deployedLinkReferences": {}
}